:100000000C942A000C9447000C9447000C94470071
:100010000C9447000C9447000C9447000C94470044
:100020000C9447000C9447000C9447000C94470034
:100030000C9447000C9447000C9447000C94470024
:100040000C9447000C9447000C9447000C94470014
:100050000C94470011241FBECFE5D4E0DEBFCDBF16
:1000600010E0A0E6B0E0EAE4F7E102C005900D92EE
:10007000A639B107D9F710E0A6E9B0E001C01D929A
:10008000A23AB107E1F70E941C040C94A30B0C9454
:100090000000DF93CF93CDB7DEB7E4E3F0E087EF66
:1000A0008083CF91DF910895DF93CF93CDB7DEB7F3
:1000B0000E944900CF91DF910895DF93CF93CDB790
:1000C000DEB7F8940E9454007894CF91DF910895A0
:1000D000DF93CF930F92CDB7DEB71982A5E3B0E0DF
:1000E000E5E3F0E080818B7F8C93A5E3B0E0E5E36E
:1000F000F0E080818E7F8C93A5E3B0E0E5E3F0E053
:10010000808182608C93A5E3B0E0E5E3F0E080813C
:100110008F708C93A4E3B0E0E4E3F0E080818F7013
:100120008C93A5E3B0E0E5E3F0E080818C93A5E358
:10013000B0E0E5E3F0E0808184608C93A5E3B0E07B
:10014000E5E3F0E080818B7F8C93A5E3B0E0E5E30D
:10015000F0E0808184608C93A5E3B0E0E5E3F0E01B
:1001600080818B7F8C93E5E3F0E0808189838981B6
:100170008823ECF2A5E3B0E0E5E3F0E080818B7F3B
:100180008C93A5E3B0E0E5E3F0E080818D7F8C9374
:10019000A4E3B0E0E4E3F0E0808188708C93A4E312
:1001A000B0E0E4E3F0E08081876F8C9380E00F9013
:1001B000CF91DF910895DF93CF93CDB7DEB76097EE
:1001C0000FB6F894DEBF0FBECDBF888B1F86A5E3A8
:1001D000B0E0E5E3F0E080818B7F8C93A5E3B0E0B5
:1001E000E5E3F0E080818E7F8C93A5E3B0E0E5E36A
:1001F000F0E080818D7F8C9388898F87A5E3B0E0C4
:10020000E5E3F0E080818F708C93A5E3B0E0E5E357
:10021000F0E08081982F8F85807F892B8C93A5E3D8
:10022000B0E0E5E3F0E0808184608C93A5E3B0E08A
:10023000E5E3F0E080818B7F8C9388898F708F87D6
:10024000A5E3B0E0E5E3F0E080818F708C93A5E357
:10025000B0E0E5E3F0E08081282F8F85882F90E0E3
:1002600082959295907F9827807F9827822B8C93F8
:10027000A5E3B0E0E5E3F0E0808184608C93A5E342
:10028000B0E0E5E3F0E080818B7F8C930E94680012
:100290008823E1F780E090E0A0EAB0E48B879C87B8
:1002A000AD87BE876B857C858D859E8526E636E687
:1002B00046EE54E40E94A707DC01CB018F839887A8
:1002C000A987BA876F81788589859A8520E030E093
:1002D00040E85FE30E94010988232CF481E090E06C
:1002E0009E838D833FC06F81788589859A8520E0C4
:1002F0003FEF4FE757E40E94A10818164CF56B85B5
:100300007C858D859E8520E030E040E251E40E94AE
:10031000A707DC01CB01BC01CD010E94D105DC01A6
:10032000CB019E838D830FC088EB90E09C838B83F1
:100330008B819C810197F1F79C838B838D819E81BA
:1003400001979E838D838D819E81009769F714C0EC
:100350006F81788589859A850E94D105DC01CB0162
:100360009E838D838D819E819A83898389819A81E1
:100370000197F1F79A83898360960FB6F894DEBFF0
:100380000FBECDBFCF91DF910895DF93CF93CDB74F
:10039000DEB760970FB6F894DEBF0FBECDBF888B77
:1003A0001F86A5E3B0E0E5E3F0E080818B7F8C93CE
:1003B000A5E3B0E0E5E3F0E0808181608C93A5E304
:1003C000B0E0E5E3F0E080818D7F8C9388898F87B2
:1003D000A5E3B0E0E5E3F0E080818F708C93A5E3C6
:1003E000B0E0E5E3F0E08081982F8F85807F892B56
:1003F0008C93A5E3B0E0E5E3F0E0808184608C932A
:10040000A5E3B0E0E5E3F0E080818B7F8C93888901
:100410008F708F87A5E3B0E0E5E3F0E080818F7017
:100420008C93A5E3B0E0E5E3F0E08081282F8F8591
:10043000882F90E082959295907F9827807F9827CB
:10044000822B8C93A5E3B0E0E5E3F0E0808184604B
:100450008C93A5E3B0E0E5E3F0E080818B7F8C93A3
:1004600080E090E0A0E8BFE38B879C87AD87BE87E4
:100470006B857C858D859E8526E636E646EE54E4C2
:100480000E94A707DC01CB018F839887A987BA87D1
:100490006F81788589859A8520E030E040E85FE3C8
:1004A0000E94010988232CF481E090E09E838D83D3
:1004B0003FC06F81788589859A8520E03FEF4FE7BF
:1004C00057E40E94A10818164CF56B857C858D8534
:1004D0009E8520E030E040E251E40E94A707DC0165
:1004E000CB01BC01CD010E94D105DC01CB019E8373
:1004F0008D830FC088EB90E09C838B838B819C81E4
:100500000197F1F79C838B838D819E8101979E8358
:100510008D838D819E81009769F714C06F817885E6
:1005200089859A850E94D105DC01CB019E838D834C
:100530008D819E819A83898389819A810197F1F7C0
:100540009A83898360960FB6F894DEBF0FBECDBF45
:10055000CF91DF910895DF93CF93CDB7DEB780E2DF
:100560000E94DB0088E20E94DB008CE00E94DB003E
:1005700086E00E94DB0081E00E94DB00CF91DF91EA
:100580000895DF93CF9300D000D0CDB7DEB7898335
:100590006A838981282F30E03C832B838B819C8167
:1005A00082309105D9F02B813C812330310534F420
:1005B0008B819C818130910561F01EC02B813C8133
:1005C0002330310581F08B819C818430910581F04D
:1005D00013C08A8181580E94DB000EC08A81815439
:1005E0000E94DB0009C08A818D560E94DB0004C096
:1005F0008A818D520E94DB000F900F900F900F9018
:10060000CF91DF910895DF93CF9300D0CDB7DEB7C0
:100610009A8389830AC0E981FA8180810E94C50199
:1006200089819A8101969A838983E981FA818081FF
:10063000882389F70F900F90CF91DF910895DF9372
:10064000CF93CDB7DEB780E80E94DB00CF91DF917A
:100650000895DF93CF93CDB7DEB781E00E94DB0032
:10066000CF91DF910895DF93CF93CDB7DEB72B976E
:100670000FB6F894DEBF0FBECDBF8E836F838E8121
:10068000882F90E0A0E0B0E08A839B83AC83BD8399
:100690008F81882389F481E090E0A0E0B0E08A8334
:1006A0009B83AC83BD838A819B81AC81BD8188871C
:1006B0009987AA87BB8725C08F818150898316C0FF
:1006C0008E81282F30E040E050E08A819B81AC8110
:1006D000BD81BC01CD010E942B0BDC01CB018A83C3
:1006E0009B83AC83BD8389818150898389818823E1
:1006F00039F78A819B81AC81BD8188879987AA87D8
:10070000BB8788859985AA85BB85BC01CD012B96C1
:100710000FB6F894DEBF0FBECDBFCF91DF91089525
:10072000DF93CF93CDB7DEB729970FB6F894DEBF2E
:100730000FBECDBF6D837E838F83988749871982D3
:100740001A821B821C828985982F91508AE0692F1A
:100750000E943303DC01CB0189839A83AB83BC8382
:100760008D819E81AF81B88529813A814B815C81E1
:10077000BC01CD010E944A0BDA01C9012AE030E038
:1007800040E050E0BC01CD010E944A0BDC01CB01EE
:10079000805D29960FB6F894DEBF0FBECDBFCF9116
:1007A000DF9108950F931F93DF93CF93CDB7DEB7FB
:1007B00029970FB6F894DEBF0FBECDBF8A836B8337
:1007C0002C833D834E835F831987088719828A8132
:1007D000882319F08B81882319F40E941F0304C019
:1007E0008A816B810E94C102888599858B30910531
:1007F00024F088E50E94C50114C0888589830EC055
:100800008C819D81AE81BF81BC01CD0149810E9457
:1008100090030E94C5018981815089838981882341
:1008200079F729960FB6F894DEBF0FBECDBFCF91F2
:10083000DF911F910F910895DF93CF93CDB7DEB76E
:10084000AA970FB6F894DEBF0FBECDBF0E945D0021
:100850000E94AB0281E067E00E94C10280E690E066
:100860000E94030382E066E00E94C10284E690E0F9
:100870000E94030380E090E0AAEFB4E48FA398A75E
:10088000A9A7BAA76FA178A589A59AA526E636E6F5
:1008900046EE54E40E94A707DC01CB018BA39CA386
:1008A000ADA3BEA36BA17CA18DA19EA120E030E0F1
:1008B00040E85FE30E94010988232CF481E090E086
:1008C0009AA389A33FC06BA17CA18DA19EA120E02A
:1008D0003FEF4FE757E40E94A10818164CF56FA1AF
:1008E00078A589A59AA520E030E040E251E40E9475
:1008F000A707DC01CB01BC01CD010E94D105DC01C1
:10090000CB019AA389A30FC088EB90E098A38F8FA7
:100910008F8D98A10197F1F798A38F8F89A19AA144
:1009200001979AA389A389A19AA1009769F714C096
:100930006BA17CA18DA19EA10E94D105DC01CB0100
:100940009AA389A389A19AA19E8F8D8F8D8D9E8D4B
:100950000197F1F79E8F8D8F0E94290381E066E059
:100960000E94C1028AE690E00E94030382E066E0F2
:100970000E94C10280E790E00E94030380E090E0C3
:10098000AAEFB4E4898F9A8FAB8FBC8F698D7A8D73
:100990008B8D9C8D26E636E646EE54E40E94A70732
:1009A000DC01CB018D8B9E8BAF8BB88F6D897E89DF
:1009B0008F89988D20E030E040E85FE30E940109D4
:1009C00088232CF481E090E09C8B8B8B3FC06D8959
:1009D0007E898F89988D20E03FEF4FE757E40E9492
:1009E000A10818164CF5698D7A8D8B8D9C8D20E0B1
:1009F00030E040E251E40E94A707DC01CB01BC01DA
:100A0000CD010E94D105DC01CB019C8B8B8B0FC0EB
:100A100088EB90E09A8B898B89899A890197F1F705
:100A20009A8B898B8B899C8901979C8B8B8B8B896B
:100A30009C89009769F714C06D897E898F89988D8C
:100A40000E94D105DC01CB019C8B8B8B8B899C890F
:100A5000988B8F878F8598890197F1F7988B8F876F
:100A60000E94290381E063E00E94C10285E790E0D3
:100A70000E94030382E066E00E94C10281E890E0E8
:100A80000E94030380E090E0AAEFB4E48B879C8788
:100A9000AD87BE876B857C858D859E8526E636E68F
:100AA00046EE54E40E94A707DC01CB018F839887B0
:100AB000A987BA876F81788589859A8520E030E09B
:100AC00040E85FE30E94010988232CF481E090E074
:100AD0009E838D833FC06F81788589859A8520E0CC
:100AE0003FEF4FE757E40E94A10818164CF56B85BD
:100AF0007C858D859E8520E030E040E251E40E94B7
:100B0000A707DC01CB01BC01CD010E94D105DC01AE
:100B1000CB019E838D830FC088EB90E09C838B83F9
:100B20008B819C810197F1F79C838B838D819E81C2
:100B300001979E838D838D819E81009769F714C0F4
:100B40006F81788589859A850E94D105DC01CB016A
:100B50009E838D838D819E819A83898389819A81E9
:100B60000197F1F79A8389830E94290381E067E066
:100B70000E94C10280E690E00E94030382E067E0E9
:100B80000E94C10288E890E00E94030380E090E0A8
:100B9000AA960FB6F894DEBF0FBECDBFCF91DF91FE
:100BA0000895EF92FF920F931F937B018C0120E039
:100BB00030E040E05FE40E94D10888238CF0C80157
:100BC000B70120E030E040E05FE40E9449070E9466
:100BD00031099B01AC01205030404040504806C0D4
:100BE000C801B7010E9431099B01AC01B901CA01DA
:100BF0001F910F91FF90EF900895A0E0B0E0E3E027
:100C0000F6E00C946C0BDC012B01FA019C91923004
:100C100008F439C1EB018881823008F433C1943083
:100C200069F4843009F02FC111969C911197898144
:100C3000981709F428C1ADE8B0E025C1843009F463
:100C400021C18230A9F4923009F01DC19A01AD0191
:100C500088E0EA010990AE01E90109929E01815004
:100C6000C1F7E201898111969C918923818308C192
:100C7000923009F407C112962D903C901397EB0126
:100C80008A819B811496AD90BD90CD90DC90179792
:100C9000EC80FD800E811F819101281B390BB90169
:100CA00037FF04C066277727621B730B603271051C
:100CB0000CF061C0121613066CF537014801062EC0
:100CC00004C096948794779467940A94D2F721E0AD
:100CD00030E040E050E004C0220F331F441F551F96
:100CE0006A95D2F721503040404050402E213F219C
:100CF00040235123211531054105510521F021E003
:100D000030E040E050E079018A01E628F728082920
:100D100019293CC0232BD1F1260E371E350146017F
:100D2000062E04C096948794779467940A94D2F719
:100D300021E030E040E050E004C0220F331F441FA8
:100D4000551F6A95D2F721503040404050402A212B
:100D50003B214C215D21211531054105510521F033
:100D600021E030E040E050E059016A01A628B728B0
:100D7000C828D9280BC0821593052CF01C01AA2481
:100D8000BB24650103C0EE24FF24870111969C91CA
:100D9000D20111968C91981709F445C0992339F026
:100DA000A80197012A193B094C095D0906C0A60153
:100DB00095012E193F09400B510B57FD08C01182B8
:100DC0003382228224833583468357831DC081E08A
:100DD00081833382228288279927DC01821B930B2F
:100DE000A40BB50B84839583A683B7830DC0220F14
:100DF000331F441F551F24833583468357838281C5
:100E00009381019793838283248135814681578121
:100E1000DA01C9010197A109B1098F5F9F4FAF4F57
:100E2000BF4328F30BC0918333822282EA0CFB1C60
:100E30000C1D1D1DE482F5820683178383E08083E9
:100E4000248135814681578157FF1AC0C901AA27DD
:100E500097FDA095BA2F81709070A070B0705695D4
:100E6000479537952795822B932BA42BB52B8483FD
:100E70009583A683B783828193810196938382832E
:100E8000DF0101C0D201CD01CDB7DEB7E2E10C94A4
:100E9000880BA0E2B0E0EFE4F7E00C94780B6983F4
:100EA0007A838B839C832D833E834F835887E9E02D
:100EB000EE2EF12CEC0EFD1ECE010196B7010E9424
:100EC0005A0A8E010F5E1F4FCE010596B8010E948F
:100ED0005A0A8A8991E089278A8BC701B801AE0135
:100EE000475E5F4F0E94FD050E948509A096E6E0DF
:100EF0000C94940BA0E2B0E0E0E8F7E00C94780BDF
:100F000069837A838B839C832D833E834F835887A9
:100F1000F9E0EF2EF12CEC0EFD1ECE010196B7018B
:100F20000E945A0A8E010F5E1F4FCE010596B8012E
:100F30000E945A0AC701B801AE01475E5F4F0E9486
:100F4000FD050E948509A096E6E00C94940BA0E2B2
:100F5000B0E0EDEAF7E00C946C0B69837A838B8345
:100F60009C832D833E834F835887CE010196BE011B
:100F7000675F7F4F0E945A0ACE010596BE016F5EE1
:100F80007F4F0E945A0A9985923088F08989823071
:100F9000C8F0943019F4823051F404C0843029F43C
:100FA000923081F48DE890E0C6C0923049F420E0A0
:100FB0009A858A89981321E02A87CE010996BBC0B9
:100FC000823049F420E09A858A89981321E02A8B9F
:100FD000CE014196B0C02D843E844F8458886D88E0
:100FE0007E888F88988CEE24FF248701AA24BB2456
:100FF000650140E050E060E070E0E0E0F0E0C10159
:1010000081709070892BE9F0E60CF71C081D191D02
:101010009A01AB012A0D3B1D4C1D5D1D80E090E047
:10102000A0E0B0E0E614F7040805190520F481E01B
:1010300090E0A0E0B0E0BA01A901480F591F6A1F73
:101040007B1FAA0CBB1CCC1CDD1C97FE08C081E0DA
:1010500090E0A0E0B0E0A82AB92ACA2ADB2A31969B
:10106000E032F10549F0660C771C881C991C5694F7
:10107000479437942794C3CFFA85EA892B893C8912
:101080008B859C85280F391F2E5F3F4F17C0CA01E3
:1010900081709070892B61F016950795F794E7940D
:1010A00080E090E0A0E0B0E8E82AF92A0A2B1B2BA8
:1010B00076956795579547952F5F3F4F77FDE7CF1B
:1010C0000CC0440F551F661F771F17FD4160EE0CC3
:1010D000FF1C001F111F21503040403090E0590785
:1010E00090E0690790E4790760F32B8F3C8FDB0178
:1010F000CA018F779070A070B07080349105A105FF
:10110000B10561F447FD0AC0E114F10401051105C0
:1011100029F0405C5F4F6F4F7F4F40781A8EFE176B
:1011200011F081E08A8F4D8F5E8F6F8F78A383E0FF
:10113000898FCE0149960E948509A096E2E10C9420
:10114000880BA8E1B0E0E7EAF8E00C94780B69833B
:101150007A838B839C832D833E834F83588789E0DA
:10116000E82EF12CEC0EFD1ECE010196B7010E9477
:101170005A0A8E010F5E1F4FCE010596B8010E94DC
:101180005A0A8985823040F08989823028F0C70167
:10119000B8010E94D20A01C08FEF6896E6E00C9475
:1011A000940BA8E1B0E0E7EDF8E00C94780B6983CC
:1011B0007A838B839C832D833E834F83588789E07A
:1011C000E82EF12CEC0EFD1ECE010196B7010E9417
:1011D0005A0A8E010F5E1F4FCE010596B8010E947C
:1011E0005A0A8985823040F08989823028F0C70107
:1011F000B8010E94D20A01C08FEF6896E6E00C9415
:10120000940BA8E1B0E0E7E0F9E00C94780B698377
:101210007A838B839C832D833E834F83588789E019
:10122000E82EF12CEC0EFD1ECE010196B7010E94B6
:101230005A0A8E010F5E1F4FCE010596B8010E941B
:101240005A0A8985823040F08989823028F0C701A6
:10125000B8010E94D20A01C081E06896E6E00C94D1
:10126000940BACE0B0E0E7E3F9E00C947C0B69830D
:101270007A838B839C83CE010196BE016B5F7F4F87
:101280000E945A0A8D81823061F1823050F184309F
:1012900021F48E81882351F12EC02F81388537FDAE
:1012A00020C06E812F3131051CF06623F9F023C078
:1012B0008EE190E0821B930B29853A854B855C85F6
:1012C00004C056954795379527958A95D2F766239A
:1012D000B1F050954095309521953F4F4F4F5F4F5E
:1012E0000EC020E030E040E050E009C02FEF3FEFBB
:1012F0004FEF5FE704C020E030E040E050E8B90184
:10130000CA012C96E2E00C94980BDF92EF92FF92C8
:101310000F931F93FC01E480F58006811781D18033
:101320008081823048F480E090E0A0E1B0E0E82ADB
:10133000F92A0A2B1B2BA5C0843009F49FC08230E8
:1013400021F4EE24FF24870105C0E114F104010516
:10135000110519F4E0E0F0E096C0628173819FEF1F
:10136000623879070CF05BC022E83FEF261B370B91
:101370002A3131052CF020E030E040E050E02AC076
:10138000B801A701022E04C0769567955795479539
:101390000A94D2F781E090E0A0E0B0E004C0880FAA
:1013A000991FAA1FBB1F2A95D2F70197A109B1095E
:1013B0008E219F21A023B1230097A105B10521F023
:1013C00081E090E0A0E0B0E09A01AB01282B392B3E
:1013D0004A2B5B2BDA01C9018F779070A070B07037
:1013E00080349105A105B10539F427FF09C0205CBF
:1013F0003F4F4F4F5F4F04C0215C3F4F4F4F5F4FF8
:10140000E0E0F0E02030A0E03A07A0E04A07A0E4E6
:101410005A0710F0E1E0F0E079018A0127C0603856
:10142000710564F5FB01E158FF4FD801C7018F77C3
:101430009070A070B07080349105A105B10539F4A9
:10144000E7FE0DC080E490E0A0E0B0E004C08FE3D0
:1014500090E0A0E0B0E0E80EF91E0A1F1B1F17FF86
:1014600005C016950795F794E794319687E0169591
:101470000795F794E7948A95D1F705C0EE24FF24E9
:101480008701EFEFF0E06E2F679566276795902F45
:101490009F77D794DD24D7948E2F8695492F462B9E
:1014A000582F5D29B701CA011F910F91FF90EF904E
:1014B000DF900895FC01DB01408151812281622F80
:1014C0006F7770E0221F2227221F9381892F880FB8
:1014D000822B282F30E0991F9927991F11969C93F2
:1014E000119721153105A9F54115510561057105C2
:1014F00011F482E037C082E89FEF13969C938E939D
:1015000012979A01AB0167E0220F331F441F551F4A
:101510006A95D1F783E08C930DC0220F331F441FCF
:10152000551F12968D919C911397019713969C933A
:101530008E931297203080E0380780E0480780E4DF
:10154000580758F314962D933D934D935C9317973A
:1015500008952F3F310579F4411551056105710555
:1015600019F484E08C93089564FF03C081E08C93A8
:1015700012C01C9210C02F57304013963C932E93EC
:10158000129783E08C9387E0440F551F661F771FE7
:101590008A95D1F7706414964D935D936D937C9307
:1015A000179708951F93DC01FB019C91923008F47A
:1015B00047C08081823008F443C0943051F41196C2
:1015C0001C91843099F58181682F70E0611B71094D
:1015D0003FC0843021F0923031F48230B9F1818102
:1015E000882389F12DC011961C9111978230F1F05A
:1015F00081811817D9F412962D913C91139782810D
:1016000093818217930794F028173907BCF014963A
:101610008D919D910D90BC91A02D248135814681A5
:101620005781281739074A075B0718F4112341F03F
:101630000AC082179307A407B50740F4112319F0D5
:1016400061E070E005C06FEF7FEF02C060E070E026
:10165000CB011F910895629FD001739FF001829F7B
:10166000E00DF11D649FE00DF11D929FF00D839F31
:10167000F00D749FF00D659FF00D9927729FB00DCE
:10168000E11DF91F639FB00DE11DF91FBD01CF01E1
:1016900011240895A1E21A2EAA1BBB1BFD010DC047
:1016A000AA1FBB1FEE1FFF1FA217B307E407F50712
:1016B00020F0A21BB30BE40BF50B661F771F881FEE
:1016C000991F1A9469F760957095809590959B0184
:1016D000AC01BD01CF0108952F923F924F925F92CE
:1016E0006F927F928F929F92AF92BF92CF92DF9232
:1016F000EF92FF920F931F93CF93DF93CDB7DEB797
:10170000CA1BDB0B0FB6F894DEBF0FBECDBF09942A
:101710002A88398848885F846E847D848C849B8481
:10172000AA84B984C884DF80EE80FD800C811B818F
:10173000AA81B981CE0FD11D0FB6F894DEBF0FBEBE
:0A174000CDBFED010895F894FFCF2E
:10174A00446576004A6F736869005669646869007F
:10175A004D6F646900446861726D69736874686189
:10176A0000476F6A6979610044617665000000008C
:06177A0000000000000069
:00000001FF
